:1000000012C019C018C017C016C015C014C013C044
:1000100020C011C010C00FC00EC00DC00CC00BC05E
:100020000AC009C008C011241FBECFE5D4E0DEBF5E
:10003000CDBF02D024C0E4CFB99A78948EEB90EF74
:100040009DBD8CBD89B7846089BF8EB585608EBD2E
:10005000FFCF1F920F920FB60F9211248F939F9391
:100060008EEB90EF9DBD8CBD98B382E0892788BB55
:100070009F918F910F900FBE0F901F901895F8943D
:02008000FFCFB0
:00000001FF
