S019000053696D756C61646F72456A656D706C6F312E737265635E
S11300000C9434000C943E000C943E000C943E007E
S11300100C943E000C943E000C943E000C943E0064
S11300200C943E000C943E000C943E000C943E0054
S11300300C943E000C943E000C943E000C943E0044
S11300400C943E000C943E000C943E000C943E0034
S11300500C943E000C943E000C943E000C943E0024
S11300600C943E000C943E0011241FBECFEFD8E048
S1130070DEBFCDBF0E9440000C944A000C940000E7
S1130080209A299A00C000C00000299800C000C02E
S10B00900000F7CFF894FFCF44
S9030000FC
