:100000000C9438000C9442000C9442000C94420072
:100010000C9442000C9442000C9442000C94420058
:100020000C9442000C9442000C9442000C94420048
:100030000C9442000C9442000C9442000C94580022
:100040000C9442000C9442000C9442000C94420028
:100050000C9442000C9442000C9442000C94420018
:100060000C9442000C9442000C9442000C94420008
:1000700011241FBECFEFD4E0DEBFCDBF0E944400ED
:100080000C946E000C940000A09AA89A78948EEBC1
:1000900090EF9DBD8CBD89B7806889BF8EB58560A6
:1000A0008EBD30E127E2832F922F0197F1F7FBCF2E
:1000B0001F920F920FB60F9211248F939F938EEB86
:1000C00090EF9DBD8CBD95B381E0892785BB9F9145
:1000D0008F910F900FBE0F901F901895F894FFCF3F
:00000001FF
