S01A00005265665653617267735F4578616D706C65312E737265633B
S11300000C9438000C944D000C944D000C944D004D
S11300100C944D000C944D000C944D000C944D0028
S11300200C944D000C944D000C944D000C944D0018
S11300300C944D000C944D000C944D000C944D0008
S11300400C944D000C944D000C944D000C944D00F8
S11300500C944D000C944D000C944D000C944D00E8
S11300600C944D000C944D000C944D000C944D00D8
S113007011241FBECFEFD4E0DEBFCDBF14E0A0E05B
S1130080B1E0E0E0F1E002C005900D92A030B107CC
S1130090D9F70E945D000C947E000C94000095B387
S11300A081E0892785BB81E090E0089595B381E0E4
S11300B0892785BB81E090E00895CF93DF93CDB786
S11300C0DEB7D3500FB6F894DEBF0FBECDBF80E0CD
S11300D093E0E0E0F1E0DE01119601900D920197CA
S11300E0E1F7A09A999B05C0CE0101960E944F00AA
S11300F0F9CFCE0101960E945600F4CFF894FFCFB9
S113010000007AC40000FA4400803B4500401C47CC
S11301100000C8C2000074430080B1430080E34380
S11301200060C2C400902D450080BC4300003C42E6
S113013000E08AC4008034450000734500588E45B1
S113014000882FC6000018450000B6430080FA441A
S11301500060A8C40094B94600B0024700093547BE
S113016000E0C3C400B03A4500F04B4520DFDC4852
S113017000F874C600CCD946001B0C470021314757
S113018000F874C600BAE0460070174700343347DD
S1130190009681C600F6D14600240C4700D03947AA
S11301A000F489C60016CA460000B3430080F24337
S11301B000CC79C600A0AE4600AD09478CA08A4A9F
S11301C000007AC40000FA4400803B4500401C470C
S11301D00000C8C2000074430080B1430080E343C0
S11301E00060C2C400902D450080BC4300003C4226
S11301F000E08AC4008034450000734500588E45F1
S113020000882FC6000018450000B6430080FA4459
S11302100060A8C40094B94600B0024700093547FD
S113022000E0C3C400B03A4500F04B4520DFDC4891
S113023000F874C600CCD946001B0C470021314796
S113024000F874C600BAE04600701747003433471C
S1130250009681C600F6D14600240C4700D03947E9
S113026000F489C60016CA460000B3430080F24376
S113027000CC79C600A0AE4600AD09478CA08A4ADE
S113028000007AC40000FA4400803B4500401C474B
S11302900000C8C2000074430080B1430080E343FF
S11302A00060C2C400902D450080BC4300003C4265
S11302B000E08AC4008034450000734500588E4530
S11302C000882FC6000018450000B6430080FA4499
S11302D00060A8C40094B94600B00247000935473D
S11302E000E0C3C400B03A4500F04B4520DFDC48D1
S11302F000F874C600CCD946001B0C4700213147D6
S113030000F874C600BAE04600701747003433475B
S1130310009681C600F6D14600240C4700D0394728
S113032000F489C60016CA460000B3430080F243B5
S113033000CC79C600A0AE4600AD09478CA08A4A1D
S113034000007AC40000FA4400803B4500401C478A
S11303500000C8C2000074430080B1430080E3433E
S11303600060C2C400902D450080BC4300003C42A4
S113037000E08AC4008034450000734500588E456F
S113038000882FC6000018450000B6430080FA44D8
S11303900060A8C40094B94600B00247000935477C
S11303A000E0C3C400B03A4500F04B4520DFDC4810
S11303B000F874C600CCD946001B0C470021314715
S11303C000F874C600BAE04600701747003433479B
S11303D0009681C600F6D14600240C4700D0394768
S11303E000F489C60016CA460000B3430080F243F5
S11303F000CC79C600A0AE4600AD09478CA08A4A5D
S9030000FC
